{
  "contractName": "CoinFlip",
  "abi": [
    {
      "inputs": [],
      "stateMutability": "nonpayable",
      "type": "constructor"
    },
    {
      "anonymous": false,
      "inputs": [
        {
          "indexed": false,
          "internalType": "string",
          "name": "description",
          "type": "string"
        }
      ],
      "name": "LogNewProvableQuery",
      "type": "event"
    },
    {
      "anonymous": false,
      "inputs": [
        {
          "indexed": false,
          "internalType": "bytes4",
          "name": "flipResult",
          "type": "bytes4"
        },
        {
          "indexed": false,
          "internalType": "address",
          "name": "user",
          "type": "address"
        }
      ],
      "name": "WinOrLose",
      "type": "event"
    },
    {
      "stateMutability": "payable",
      "type": "fallback",
      "payable": true
    },
    {
      "inputs": [],
      "name": "contractBalance",
      "outputs": [
        {
          "internalType": "uint256",
          "name": "",
          "type": "uint256"
        }
      ],
      "stateMutability": "view",
      "type": "function",
      "constant": true
    },
    {
      "stateMutability": "payable",
      "type": "receive",
      "payable": true
    },
    {
      "inputs": [
        {
          "internalType": "uint256",
          "name": "chosen",
          "type": "uint256"
        }
      ],
      "name": "bet",
      "outputs": [],
      "stateMutability": "payable",
      "type": "function",
      "payable": true
    },
    {
      "inputs": [
        {
          "internalType": "bytes32",
          "name": "_myid",
          "type": "bytes32"
        },
        {
          "internalType": "string",
          "name": "_result",
          "type": "string"
        }
      ],
      "name": "__callback",
      "outputs": [],
      "stateMutability": "nonpayable",
      "type": "function"
    },
    {
      "inputs": [
        {
          "internalType": "bytes32",
          "name": "_queryId",
          "type": "bytes32"
        },
        {
          "internalType": "string",
          "name": "_result",
          "type": "string"
        },
        {
          "internalType": "bytes",
          "name": "_proof",
          "type": "bytes"
        }
      ],
      "name": "__callback",
      "outputs": [],
      "stateMutability": "nonpayable",
      "type": "function"
    },
    {
      "inputs": [],
      "name": "addBalance",
      "outputs": [],
      "stateMutability": "payable",
      "type": "function",
      "payable": true
    },
    {
      "inputs": [],
      "name": "withdrawAll",
      "outputs": [
        {
          "internalType": "uint256",
          "name": "",
          "type": "uint256"
        }
      ],
      "stateMutability": "nonpayable",
      "type": "function"
    }
  ],
  "bytecode": "0x608060405234801561001057600080fd5b5033600660006101000a81548173ffffffffffffffffffffffffffffffffffffffff021916908373ffffffffffffffffffffffffffffffffffffffff1602179055506000600581905550612b35806100696000396000f3fe6080604052600436106100595760003560e01c806327dc297e1461007257806338bbfa50146101445780637365870b146102ad578063853828b6146102db5780638b7afe2e14610306578063b163cc381461033157610070565b366100705734600560008282540192505081905550005b005b34801561007e57600080fd5b506101426004803603604081101561009557600080fd5b8101908080359060200190929190803590602001906401000000008111156100bc57600080fd5b8201836020820111156100ce57600080fd5b803590602001918460018302840111640100000000831117156100f057600080fd5b91908080601f016020809104026020016040519081016040528093929190818152602001838380828437600081840152601f19601f82011690508083019250505050505050919291929050505061033b565b005b34801561015057600080fd5b506102ab6004803603606081101561016757600080fd5b81019080803590602001909291908035906020019064010000000081111561018e57600080fd5b8201836020820111156101a057600080fd5b803590602001918460018302840111640100000000831117156101c257600080fd5b91908080601f016020809104026020016040519081016040528093929190818152602001838380828437600081840152601f19601f8201169050808301925050505050505091929192908035906020019064010000000081111561022557600080fd5b82018360208201111561023757600080fd5b8035906020019184600183028401116401000000008311171561025957600080fd5b91908080601f016020809104026020016040519081016040528093929190818152602001838380828437600081840152601f19601f820116905080830192505050505050509192919290505050610395565b005b6102d9600480360360208110156102c357600080fd5b8101908080359060200190929190505050610467565b005b3480156102e757600080fd5b506102f0610665565b6040518082815260200191505060405180910390f35b34801561031257600080fd5b5061031b6107b2565b6040518082815260200191505060405180910390f35b6103396107b8565b005b6103918282600067ffffffffffffffff8111801561035857600080fd5b506040519080825280601f01601f19166020018201604052801561038b5781602001600182028036833780820191505090505b50610395565b5050565b61039d6107ca565b73ffffffffffffffffffffffffffffffffffffffff163373ffffffffffffffffffffffffffffffffffffffff16146103d457600080fd5b60006002836040516020018082805190602001908083835b6020831061040f57805182526020820191506020810190506020830392506103ec565b6001836020036101000a0380198251168184511680821785525050505050509050019150506040516020818303038152906040528051906020012060001c8161045457fe5b0690506104618185610ae7565b50505050565b662386f26fc1000034101580156104865750678ac7230489e800003411155b6104f8576040517f08c379a00000000000000000000000000000000000000000000000000000000081526004018080602001828103825260188152602001807f496d70726f70657220616d6f756e7420656e74657265642e000000000000000081525060200191505060405180910390fd5b3460056000828254019250508190555067016345785d8a000060023402016005541015610570576040517f08c379a000000000000000000000000000000000000000000000000000000000815260040180806020018281038252602a815260200180612aa1602a913960400191505060405180910390fd5b60008062030d409050600061058783600184610d91565b9050836007600083815260200190815260200160002060000181905550346007600083815260200190815260200160002060010181905550336007600083815260200190815260200160002060020160006101000a81548173ffffffffffffffffffffffffffffffffffffffff021916908373ffffffffffffffffffffffffffffffffffffffff1602179055507fc4dc360d0a9c0677a3379ae0a3d81e887f761e65fdf3d7e00859d1bcd3c47389604051808060200182810382526035815260200180612acb6035913960400191505060405180910390a150505050565b6000600660009054906101000a900473ffffffffffffffffffffffffffffffffffffffff1673ffffffffffffffffffffffffffffffffffffffff163373ffffffffffffffffffffffffffffffffffffffff16146106c157600080fd5b6000479050600060058190555060003373ffffffffffffffffffffffffffffffffffffffff168260405180600001905060006040518083038185875af1925050503d806000811461072e576040519150601f19603f3d011682016040523d82523d6000602084013e610733565b606091505b50509050806107aa576040517f08c379a00000000000000000000000000000000000000000000000000000000081526004018080602001828103825260118152602001807f45746865722073656e64206661696c656400000000000000000000000000000081525060200191505060405180910390fd5b819250505090565b60055481565b34600560008282540192505081905550565b60008073ffffffffffffffffffffffffffffffffffffffff16600160009054906101000a900473ffffffffffffffffffffffffffffffffffffffff1673ffffffffffffffffffffffffffffffffffffffff16148061085257506000610850600160009054906101000a900473ffffffffffffffffffffffffffffffffffffffff166113b6565b145b156108635761086160006113c1565b505b600160009054906101000a900473ffffffffffffffffffffffffffffffffffffffff1673ffffffffffffffffffffffffffffffffffffffff166338cc48316040518163ffffffff1660e01b8152600401602060405180830381600087803b1580156108cd57600080fd5b505af11580156108e1573d6000803e3d6000fd5b505050506040513d60208110156108f757600080fd5b810190808051906020019092919050505073ffffffffffffffffffffffffffffffffffffffff1660008054906101000a900473ffffffffffffffffffffffffffffffffffffffff1673ffffffffffffffffffffffffffffffffffffffff1614610a3f57600160009054906101000a900473ffffffffffffffffffffffffffffffffffffffff1673ffffffffffffffffffffffffffffffffffffffff166338cc48316040518163ffffffff1660e01b8152600401602060405180830381600087803b1580156109c457600080fd5b505af11580156109d8573d6000803e3d6000fd5b505050506040513d60208110156109ee57600080fd5b81019080805190602001909291905050506000806101000a81548173ffffffffffffffffffffffffffffffffffffffff021916908373ffffffffffffffffffffffffffffffffffffffff1602179055505b60008054906101000a900473ffffffffffffffffffffffffffffffffffffffff1673ffffffffffffffffffffffffffffffffffffffff1663c281d19e6040518163ffffffff1660e01b8152600401602060405180830381600087803b158015610aa757600080fd5b505af1158015610abb573d6000803e3d6000fd5b505050506040513d6020811015610ad157600080fd5b8101908080519060200190929190505050905090565b60008260076000848152602001908152602001600020600001541415610c71577f776f6e000000000000000000000000000000000000000000000000000000000090506000600260076000858152602001908152602001600020600101540290508060056000828254039250508190555060006007600085815260200190815260200160002060020160009054906101000a900473ffffffffffffffffffffffffffffffffffffffff1673ffffffffffffffffffffffffffffffffffffffff168260405180600001905060006040518083038185875af1925050503d8060008114610bee576040519150601f19603f3d011682016040523d82523d6000602084013e610bf3565b606091505b5050905080610c6a576040517f08c379a00000000000000000000000000000000000000000000000000000000081526004018080602001828103825260118152602001807f45746865722073656e64206661696c656400000000000000000000000000000081525060200191505060405180910390fd5b5050610c95565b7f6c6f73740000000000000000000000000000000000000000000000000000000090505b7f1c93974bcff46508c1dfb8ff9994f93c9db78ac7936855ae2375527e1052bb81816007600085815260200190815260200160002060020160009054906101000a900473ffffffffffffffffffffffffffffffffffffffff1660405180837bffffffffffffffffffffffffffffffffffffffffffffffffffffffff191681526020018273ffffffffffffffffffffffffffffffffffffffff1681526020019250505060405180910390a16007600083815260200190815260200160002060008082016000905560018201600090556002820160006101000a81549073ffffffffffffffffffffffffffffffffffffffff02191690555050505050565b60008083118015610da3575060208311155b610dac57600080fd5b600a840293506060600167ffffffffffffffff81118015610dcc57600080fd5b506040519080825280601f01601f191660200182016040528015610dff5781602001600182028036833780820191505090505b5090508360f81b81600081518110610e1357fe5b60200101907effffffffffffffffffffffffffffffffffffffffffffffffffffffffffffff1916908160001a9053506060602067ffffffffffffffff81118015610e5c57600080fd5b506040519080825280601f01601f191660200182016040528015610e8f5781602001600182028036833780820191505090505b5090506060602067ffffffffffffffff81118015610eac57600080fd5b506040519080825280601f01601f191660200182016040528015610edf5781602001600182028036833780820191505090505b5090506000610eec6113d2565b9050602083524241186001430340186020840152602082528060208301526060602067ffffffffffffffff81118015610f2457600080fd5b506040519080825280601f01601f191660200182016040528015610f575781602001600182028036833780820191505090505b5090508860208201526060600867ffffffffffffffff81118015610f7a57600080fd5b506040519080825280601f01601f191660200182016040528015610fad5781602001600182028036833780820191505090505b509050610fc082601860088460006116ed565b50610fc96129c2565b6040518060800160405280878152602001888152602001868152602001848152509050600061102e6040518060400160405280600681526020017f72616e646f6d0000000000000000000000000000000000000000000000000000815250838c61174c565b90506060600867ffffffffffffffff8111801561104a57600080fd5b506040519080825280601f01601f19166020018201604052801561107d5781602001600182028036833780820191505090505b50905060208401517f0100000000000000000000000000000000000000000000000000000000000000810460278301537e01000000000000000000000000000000000000000000000000000000000000810460268301537d010000000000000000000000000000000000000000000000000000000000810460258301537c0100000000000000000000000000000000000000000000000000000000810460248301537b01000000000000000000000000000000000000000000000000000000810460238301537a0100000000000000000000000000000000000000000000000000008104602283015379010000000000000000000000000000000000000000000000000081046021830153780100000000000000000000000000000000000000000000000081046020830153506113a38282856001600481106111bc57fe5b60200201516002876000600481106111d057fe5b60200201516040518082805190602001908083835b6020831061120857805182526020820191506020810190506020830392506111e5565b6001836020036101000a038019825116818451168082178552505050505050905001915050602060405180830381855afa15801561124a573d6000803e3d6000fd5b5050506040513d602081101561125f57600080fd5b81019080805190602001909291905050508760026004811061127d57fe5b60200201516040516020018085805190602001908083835b602083106112b85780518252602082019150602081019050602083039250611295565b6001836020036101000a03801982511681845116808217855250505050505090500184805190602001908083835b6020831061130957805182526020820191506020810190506020830392506112e6565b6001836020036101000a03801982511681845116808217855250505050505090500183815260200182805190602001908083835b60208310611360578051825260208201915060208101905060208303925061133d565b6001836020036101000a03801982511681845116808217855250505050505090500194505050505060405160208183030381529060405280519060200120611acf565b8199505050505050505050509392505050565b6000813b9050919050565b60006113cb611aeb565b9050919050565b60008073ffffffffffffffffffffffffffffffffffffffff16600160009054906101000a900473ffffffffffffffffffffffffffffffffffffffff1673ffffffffffffffffffffffffffffffffffffffff16148061145a57506000611458600160009054906101000a900473ffffffffffffffffffffffffffffffffffffffff166113b6565b145b1561146b5761146960006113c1565b505b600160009054906101000a900473ffffffffffffffffffffffffffffffffffffffff1673ffffffffffffffffffffffffffffffffffffffff166338cc48316040518163ffffffff1660e01b8152600401602060405180830381600087803b1580156114d557600080fd5b505af11580156114e9573d6000803e3d6000fd5b505050506040513d60208110156114ff57600080fd5b810190808051906020019092919050505073ffffffffffffffffffffffffffffffffffffffff1660008054906101000a900473ffffffffffffffffffffffffffffffffffffffff1673ffffffffffffffffffffffffffffffffffffffff161461164757600160009054906101000a900473ffffffffffffffffffffffffffffffffffffffff1673ffffffffffffffffffffffffffffffffffffffff166338cc48316040518163ffffffff1660e01b8152600401602060405180830381600087803b1580156115cc57600080fd5b505af11580156115e0573d6000803e3d6000fd5b505050506040513d60208110156115f657600080fd5b81019080805190602001909291905050506000806101000a81548173ffffffffffffffffffffffffffffffffffffffff021916908373ffffffffffffffffffffffffffffffffffffffff1602179055505b60008054906101000a900473ffffffffffffffffffffffffffffffffffffffff1673ffffffffffffffffffffffffffffffffffffffff1663abaa5f3e6040518163ffffffff1660e01b815260040160206040518083038186803b1580156116ad57600080fd5b505afa1580156116c1573d6000803e3d6000fd5b505050506040513d60208110156116d757600080fd5b8101908080519060200190929190505050905090565b606060008285019050808451101561170457600080fd5b600086602001905060008460200190505b86886020010182101561173d5781890151808288015250602082019150602081019050611715565b85935050505095945050505050565b60008073ffffffffffffffffffffffffffffffffffffffff16600160009054906101000a900473ffffffffffffffffffffffffffffffffffffffff1673ffffffffffffffffffffffffffffffffffffffff1614806117d4575060006117d2600160009054906101000a900473ffffffffffffffffffffffffffffffffffffffff166113b6565b145b156117e5576117e360006113c1565b505b600160009054906101000a900473ffffffffffffffffffffffffffffffffffffffff1673ffffffffffffffffffffffffffffffffffffffff166338cc48316040518163ffffffff1660e01b8152600401602060405180830381600087803b15801561184f57600080fd5b505af1158015611863573d6000803e3d6000fd5b505050506040513d602081101561187957600080fd5b810190808051906020019092919050505073ffffffffffffffffffffffffffffffffffffffff1660008054906101000a900473ffffffffffffffffffffffffffffffffffffffff1673ffffffffffffffffffffffffffffffffffffffff16146119c157600160009054906101000a900473ffffffffffffffffffffffffffffffffffffffff1673ffffffffffffffffffffffffffffffffffffffff166338cc48316040518163ffffffff1660e01b8152600401602060405180830381600087803b15801561194657600080fd5b505af115801561195a573d6000803e3d6000fd5b505050506040513d602081101561197057600080fd5b81019080805190602001909291905050506000806101000a81548173ffffffffffffffffffffffffffffffffffffffff021916908373ffffffffffffffffffffffffffffffffffffffff1602179055505b6060600467ffffffffffffffff811180156119db57600080fd5b50604051908082528060200260200182016040528015611a0f57816020015b60608152602001906001900390816119fa5790505b50905083600060048110611a1f57fe5b602002015181600081518110611a3157fe5b602002602001018190525083600160048110611a4957fe5b602002015181600181518110611a5b57fe5b602002602001018190525083600260048110611a7357fe5b602002015181600281518110611a8557fe5b602002602001018190525083600360048110611a9d57fe5b602002015181600381518110611aaf57fe5b6020026020010181905250611ac5858285612042565b9150509392505050565b8060036000848152602001908152602001600020819055505050565b600080611b0b731d3b2638a7cc9f2cb3d298a3da7a90b67e5506ed6113b6565b1115611bad57731d3b2638a7cc9f2cb3d298a3da7a90b67e5506ed600160006101000a81548173ffffffffffffffffffffffffffffffffffffffff021916908373ffffffffffffffffffffffffffffffffffffffff160217905550611ba46040518060400160405280600b81526020017f6574685f6d61696e6e65740000000000000000000000000000000000000000008152506125a2565b6001905061203f565b6000611bcc73c03a2615d5efaf5f49f60b7bb6583eaec212fdf16113b6565b1115611c6e5773c03a2615d5efaf5f49f60b7bb6583eaec212fdf1600160006101000a81548173ffffffffffffffffffffffffffffffffffffffff021916908373ffffffffffffffffffffffffffffffffffffffff160217905550611c656040518060400160405280600c81526020017f6574685f726f707374656e3300000000000000000000000000000000000000008152506125a2565b6001905061203f565b6000611c8d73b7a07bcf2ba2f2703b24c0691b5278999c59ac7e6113b6565b1115611d2f5773b7a07bcf2ba2f2703b24c0691b5278999c59ac7e600160006101000a81548173ffffffffffffffffffffffffffffffffffffffff021916908373ffffffffffffffffffffffffffffffffffffffff160217905550611d266040518060400160405280600981526020017f6574685f6b6f76616e00000000000000000000000000000000000000000000008152506125a2565b6001905061203f565b6000611d4e73146500cfd35b22e4a392fe0adc06de1a1368ed486113b6565b1115611df05773146500cfd35b22e4a392fe0adc06de1a1368ed48600160006101000a81548173ffffffffffffffffffffffffffffffffffffffff021916908373ffffffffffffffffffffffffffffffffffffffff160217905550611de76040518060400160405280600b81526020017f6574685f72696e6b6562790000000000000000000000000000000000000000008152506125a2565b6001905061203f565b6000611e0f73a2998efd205fb9d4b4963afb70778d6354ad3a416113b6565b1115611eb15773a2998efd205fb9d4b4963afb70778d6354ad3a41600160006101000a81548173ffffffffffffffffffffffffffffffffffffffff021916908373ffffffffffffffffffffffffffffffffffffffff160217905550611ea86040518060400160405280600a81526020017f6574685f676f65726c69000000000000000000000000000000000000000000008152506125a2565b6001905061203f565b6000611ed0736f485c8bf6fc43ea212e93bbf8ce046c7f1cb4756113b6565b1115611f3457736f485c8bf6fc43ea212e93bbf8ce046c7f1cb475600160006101000a81548173ffffffffffffffffffffffffffffffffffffffff021916908373ffffffffffffffffffffffffffffffffffffffff1602179055506001905061203f565b6000611f537320e12a1f859b3feae5fb2a0a32c18f5a65555bbf6113b6565b1115611fb7577320e12a1f859b3feae5fb2a0a32c18f5a65555bbf600160006101000a81548173ffffffffffffffffffffffffffffffffffffffff021916908373ffffffffffffffffffffffffffffffffffffffff1602179055506001905061203f565b6000611fd67351efaf4c8b3c9afbd5ab9f4bbc82784ab6ef8faa6113b6565b111561203a577351efaf4c8b3c9afbd5ab9f4bbc82784ab6ef8faa600160006101000a81548173ffffffffffffffffffffffffffffffffffffffff021916908373ffffffffffffffffffffffffffffffffffffffff1602179055506001905061203f565b600090505b90565b60008073ffffffffffffffffffffffffffffffffffffffff16600160009054906101000a900473ffffffffffffffffffffffffffffffffffffffff1673ffffffffffffffffffffffffffffffffffffffff1614806120ca575060006120c8600160009054906101000a900473ffffffffffffffffffffffffffffffffffffffff166113b6565b145b156120db576120d960006113c1565b505b600160009054906101000a900473ffffffffffffffffffffffffffffffffffffffff1673ffffffffffffffffffffffffffffffffffffffff166338cc48316040518163ffffffff1660e01b8152600401602060405180830381600087803b15801561214557600080fd5b505af1158015612159573d6000803e3d6000fd5b505050506040513d602081101561216f57600080fd5b810190808051906020019092919050505073ffffffffffffffffffffffffffffffffffffffff1660008054906101000a900473ffffffffffffffffffffffffffffffffffffffff1673ffffffffffffffffffffffffffffffffffffffff16146122b757600160009054906101000a900473ffffffffffffffffffffffffffffffffffffffff1673ffffffffffffffffffffffffffffffffffffffff166338cc48316040518163ffffffff1660e01b8152600401602060405180830381600087803b15801561223c57600080fd5b505af1158015612250573d6000803e3d6000fd5b505050506040513d602081101561226657600080fd5b81019080805190602001909291905050506000806101000a81548173ffffffffffffffffffffffffffffffffffffffff021916908373ffffffffffffffffffffffffffffffffffffffff1602179055505b60008060009054906101000a900473ffffffffffffffffffffffffffffffffffffffff1673ffffffffffffffffffffffffffffffffffffffff16632ef3accc86856040518363ffffffff1660e01b81526004018080602001838152602001828103825284818151815260200191508051906020019080838360005b8381101561234d578082015181840152602081019050612332565b50505050905090810190601f16801561237a5780820380516001836020036101000a031916815260200191505b509350505050602060405180830381600087803b15801561239a57600080fd5b505af11580156123ae573d6000803e3d6000fd5b505050506040513d60208110156123c457600080fd5b81019080805190602001909291905050509050823a02670de0b6b3a7640000018111156123f7576000801b91505061259b565b6060612402856125bc565b905060008054906101000a900473ffffffffffffffffffffffffffffffffffffffff1673ffffffffffffffffffffffffffffffffffffffff1663c55c1cb68360008985896040518663ffffffff1660e01b8152600401808581526020018060200180602001848152602001838103835286818151815260200191508051906020019080838360005b838110156124a557808201518184015260208101905061248a565b50505050905090810190601f1680156124d25780820380516001836020036101000a031916815260200191505b50838103825285818151815260200191508051906020019080838360005b8381101561250b5780820151818401526020810190506124f0565b50505050905090810190601f1680156125385780820380516001836020036101000a031916815260200191505b5096505050505050506020604051808303818588803b15801561255a57600080fd5b505af115801561256e573d6000803e3d6000fd5b50505050506040513d602081101561258557600080fd5b8101908080519060200190929190505050925050505b9392505050565b80600290805190602001906125b89291906129e9565b5050565b60606125c6612639565b6125ce612a69565b6125da81610400612645565b6125e38161268f565b60005b8351811015612622576126158482815181106125fe57fe5b60200260200101518361269d90919063ffffffff16565b80806001019150506125e6565b5061262c816126c2565b8060000151915050919050565b60405180590338823950565b600081905060006020828161265657fe5b061461266f576020818161266657fe5b06602003810190505b808360200181815250506040518084526000815281810160405250505050565b61269a8160046126d0565b50565b6126aa82600283516126f1565b6126bd818361283190919063ffffffff16565b505050565b6126cd8160076126d0565b50565b6126ed601f60058360ff16901b17836128dc90919063ffffffff16565b5050565b6017811161271d576127188160058460ff16901b60ff1617846128dc90919063ffffffff16565b61282c565b60ff811161275e57612742601860058460ff16901b17846128dc90919063ffffffff16565b6127588160018561291c9092919063ffffffff16565b5061282b565b61ffff81116127a057612784601960058460ff16901b17846128dc90919063ffffffff16565b61279a8160028561291c9092919063ffffffff16565b5061282a565b63ffffffff81116127e4576127c8601a60058460ff16901b17846128dc90919063ffffffff16565b6127de8160048561291c9092919063ffffffff16565b50612829565b67ffffffffffffffff811161282857612810601b60058460ff16901b17846128dc90919063ffffffff16565b6128268160088561291c9092919063ffffffff16565b505b5b5b5b5b505050565b612839612a69565b826020015183600001515183510111156128695761286883600261286286602001518651612983565b0261299f565b5b60008060008451905085518051602081830101945086518101825260208701935050505b602081106128b0578151835260208301925060208201915060208103905061288d565b60006001826020036101000a039050801983511681855116818117865250508694505050505092915050565b816020015160018360000151510111156129025761290182600284602001510261299f565b5b815180516020818301018381536001820183525050505050565b612924612a69565b8360200151846000015151830111156129525761295184600261294b876020015186612983565b0261299f565b5b60006001836101000a0390508451805184818301018684198251161781528582018352505050849150509392505050565b60008183111561299557829050612999565b8190505b92915050565b6060826000015190506129b28383612645565b6129bc8382612831565b50505050565b60405180608001604052806004905b60608152602001906001900390816129d15790505090565b828054600181600116156101000203166002900490600052602060002090601f016020900481019282601f10612a2a57805160ff1916838001178555612a58565b82800160010185558215612a58579182015b82811115612a57578251825591602001919060010190612a3c565b5b509050612a659190612a83565b5090565b604051806040016040528060608152602001600081525090565b5b80821115612a9c576000816000905550600101612a84565b509056fe536f7272792c2074686520636f6e74726163742063616e6e6f7420636f7665722074686973206265742e50726f7661626c65207175657279207761732073656e742c207374616e64696e6720627920666f7220616e20616e737765722e2e2ea264697066735822122027c947edc90e9fbf4d0d490c0741f5cfdd136c299e03dcae36406d88e0174af264736f6c634300060c0033",
  "immutableReferences": {},
  "source": "// SPDX-License-Identifier: GPL-2.0-or-later\r\nimport \"./provableAPI_0.6.sol\";\r\n\r\npragma solidity 0.6.12;\r\n\r\ncontract CoinFlip is usingProvable{\r\n  uint public contractBalance;\r\n  address owner;\r\n  uint256 constant NUM_BYTES = 1;\r\n\r\n  struct Gambler {\r\n    uint chosenSide;\r\n    uint betAmount;\r\n    address returnAddress;\r\n  }\r\n\r\n  mapping(bytes32 => Gambler) gamblers;\r\n\r\n  event WinOrLose(bytes4 flipResult, address user);\r\n  event LogNewProvableQuery(string description);\r\n\r\n  constructor() public {\r\n    owner = msg.sender;\r\n    contractBalance = 0;\r\n  }\r\n\r\n  modifier onlyOwner {\r\n    require(msg.sender == owner);\r\n    _;\r\n  }\r\n\r\n  // 0 is HEADS and 1 is TAILS\r\n  function bet(uint chosen) public payable {\r\n    // Must be no less than 0.01 ETH and no more than 10 ETH in value\r\n    require(msg.value >= 10000000000000000 && msg.value <= 10000000000000000000, \"Improper amount entered.\");\r\n    // Contract must have enough funds to cover paying the bet, if won - plus some extra for gas\r\n    contractBalance += msg.value;\r\n    require(contractBalance >= msg.value * 2 + 100000000000000000, \"Sorry, the contract cannot cover this bet.\");\r\n\r\n    uint256 QUERY_EXECUTION_DELAY = 0;\r\n    uint256 GAS_FOR_CALLBACK = 200000;\r\n    bytes32 queryId = provable_newRandomDSQuery(QUERY_EXECUTION_DELAY, NUM_BYTES, GAS_FOR_CALLBACK);\r\n\r\n    gamblers[queryId].chosenSide = chosen;\r\n    gamblers[queryId].betAmount = msg.value;\r\n    gamblers[queryId].returnAddress = msg.sender;\r\n\r\n    emit LogNewProvableQuery(\"Provable query was sent, standing by for an answer...\");\r\n  }\r\n\r\n  function betResult(uint landedSide, bytes32 gamblerId) internal {\r\n    bytes4 result;\r\n    if (gamblers[gamblerId].chosenSide == landedSide) {\r\n      result = \"won\";\r\n      uint winnings = gamblers[gamblerId].betAmount * 2;\r\n      contractBalance -= winnings;\r\n      (bool success, ) = gamblers[gamblerId].returnAddress.call{value: winnings}(\"\");\r\n      require(success, \"Ether send failed\");\r\n    } else {\r\n      result = \"lost\";\r\n    }\r\n    emit WinOrLose(result, gamblers[gamblerId].returnAddress);\r\n    delete gamblers[gamblerId];\r\n  }\r\n\r\n  function __callback(bytes32 _queryId, string memory _result, bytes memory _proof) public override {\r\n    require(msg.sender == provable_cbAddress());\r\n    uint256 randomNumber = uint256(keccak256(abi.encodePacked(_result))) % 2;\r\n    betResult(randomNumber, _queryId);\r\n  }\r\n\r\n  fallback() external payable {}\r\n  receive() external payable { contractBalance += msg.value; }\r\n\r\n  function addBalance() public payable {\r\n      contractBalance += msg.value;\r\n  }\r\n\r\n  function withdrawAll() public onlyOwner returns(uint) {\r\n      uint toSend = address(this).balance;\r\n      contractBalance = 0;\r\n      (bool success, ) = msg.sender.call{value: toSend}(\"\");\r\n      require(success, \"Ether send failed\");\r\n      return toSend;\r\n  }\r\n\r\n}\r\n",
  "sourcePath": "C:/Users/innov/Web Projects/Blockchain/programming/CoinFlip/contracts/CoinFlip.sol",
  "compiler": {
    "name": "solc",
    "version": "0.6.12+commit.27d51765.Emscripten.clang"
  },
  "schemaVersion": "3.3.1",
  "updatedAt": "2020-11-10T05:31:13.403Z",
  "networkType": "ethereum",
  "devdoc": {
    "kind": "dev",
    "methods": {
      "__callback(bytes32,string)": {
        "details": "The following `__callback` functions are just placeholders ideally      meant to be defined in child contract when proofs are used.      The function bodies simply silence compiler warnings."
      }
    },
    "version": 1
  },
  "userdoc": {
    "kind": "user",
    "methods": {},
    "version": 1
  }
}